:1009E500454E5445522050494E204E554D42455294
:1009F5000050494E20434F525245435400444F4FF7
:100A050052204F50454E45440057524F4E472050B7
:030A1500494E0047
:080ABB00060D33333130360023
:0F0997007F0F120A9F7F38120A9F7F01120A9F5B
:1009A600E4F513F5147F80120A9F7BFF7A0979E537
:1009B600120A18120A7B7FC0120A9F740D2514F8BA
:1009C600E6601712080074082514F8A607120A7BB9
:0D09D6000514E51470E5051380E1120925F4
:0209E30080C1D1
:090A76007F2A120AAD7FE87E031D
:100A7F00E4FDFCC3ED9FEC9E5015E4FBFA0BBB00AD
:0F0A8F00010AEB640A4A70F50DBD00010C80E40A
:010A9E002235
:0E0A9F008F90C2B5C2B6D2B7120A7BC2B72280
:0E0AAD008F90D2B5C2B6D2B7120A7BC2B72262
:060A18008B158A168917F8
:100A1E00E4F518F519AB15AA16A9178519828518CC
:100A2E0083120A49FF600D120AAD0519E51970E52A
:0B0A3E00051880E17F107E27020A7F70
:10080000E4FFFEEF4E6003020898C2A0D2A1D2A27C
:10081000D2A320B006120A767F312220B106120A36
:10082000767F322220B206120A767F3322D2A0C20D
:10083000A1D2A2D2A320B006120A767F342220B120
:1008400006120A767F352220B206120A767F3622F9
:10085000D2A0D2A1C2A2D2A320B006120A767F37BC
:100860002220B106120A767F382220B206120A76BA
:100870007F3922D2A0D2A1D2A2C2A320B006120AEE
:10088000767F2A2220B106120A767F302230B20308
:08089000020803120A767F231F
:01089800223D
:10092500E50D65087050E50E6509704AE50F650A25
:100935007044E510650B703EE511650C7038120AC0
:100945007B7F01120A9F7F81120A9F7BFF7A0979BB
:10095500F6120A18120A7BD2B3C2B47FC1120A9FDB
:100965007BFF7A0A7902120A187F107E27120A7F06
:10097500D2B3C2B480167F01120A9F7F80120A9FEC
:100985007BFF7A0A790E120A18120A7B7F01120A76
:020995009F229F
:030000000208995A
:0C089900787FE4F6D8FD7581190208E0B4
:100A4900BB010CE58229F582E5833AF583E0225062
:100A590006E92582F8E622BBFE06E92582F8E222AC
:0D0A6900E58229F582E5833AF583E49322C6
:1008A500020997E493A3F8E493A34003F68001F2C9
:1008B50008DFF48029E493A3F85407240CC8C33354
:1008C500C4540F4420C8834004F456800146F6DF23
:1008D500E4800B0102040810204080900ABBE47EEE
:1008E500019360BCA3FF543F30E509541FFEE49318
:1008F500A360010ECF54C025E060A840B8E493A3DF
:10090500FAE493A3F8E493A3C8C582C8CAC583CA09
:10091500F0A3C8C582C8CAC583CADFE9DEE780BEC1
:010AC3000032
:00000001FF
